:100000000C9434000C9446000C9446000C9446006A
:100010000C9446000C9446000C9446000C94460048
:100020000C9446000C948D000C9446000C944600F1
:100030000C9446000C9446000C9446000C94460028
:100040000C9446000C9446000C9448000C94460016
:100050000C9446000C9446000C9446000C94460008
:100060000C9446000C94460011241FBECFEFD8E03C
:10007000DEBFCDBF11E0A0E0B1E001C01D92AA300B
:10008000B107E1F70E94B2000C9452010C940000F9
:100090001F920F920FB60F9211248F939F9380910E
:1000A0000301882341F49091C0008091C6008093A1
:1000B000070181E00BC080910301813051F49091E0
:1000C000C0008091C6008093020182E0809303010A
:1000D00011C080910301823041F49091C000809161
:1000E000C6008093060183E0F1CF109207011092C1
:1000F000020190E09C7111F01092030180910001C7
:100100009091010190930501809304019F918F913B
:100110000F900FBE0F901F9018951F920F920FB661
:100120000F9211248F939F93809100019091010170
:100130000196909301018093000182EB8093B200BD
:100140009F918F910F900FBE0F901F9018959093D5
:10015000C5008093C40080E98093C1008EE0809345
:10016000C20008951092C50083E38093C40080E923
:100170008093C1008EE08093C2009FEF9AB988E817
:100180008BB994B915B881EA84BD81E085BD82EB55
:100190008093B20087E08093B1001092B00080910C
:1001A000700081608093700088E68093640078948A
:1001B0005A9A50E080910401909105014091060106
:1001C0002091000130910101840F911D8217930746
:1001D00040F410920201109207018BB187768BB91F
:1001E0002898809103018330E0F010920301809100
:1001F000020187FF03C05C9A5B9802C05B9A5C981F
:100200008091070187FF03C0289A5F9802C05F9A18
:10021000289880910201880F87BD80910701880F7F
:1002200088BD2091080130910901809100019091D1
:1002300001012817390708F0BDCF552361F45A9AF8
:1002400080910001909101010A9690930901809399
:10025000080151E0AFCF513061F45A98809100010C
:10026000909101010A96909309018093080152E050
:10027000A1CF523061F45A9A80910001909101010E
:100280000A96909309018093080153E093CF5A98FE
:100290008091000190910101C29690930901809391
:0802A000080187CFF894FFCF9D
:00000001FF
